:100000000C942A000C9447000C9447000C94470071
:100010000C9447000C9447000C9447000C94470044
:100020000C9447000C9447000C9447000C94470034
:100030000C9447000C9447000C9447000C94470024
:100040000C9447000C9447000C9447000C94470014
:100050000C94470011241FBECFE5D8E0DEBFCDBF12
:1000600010E0A0E6B0E0ECE7FDE002C005900D92E4
:10007000A837B107D9F710E0A8E7B0E001C01D929A
:10008000AA38B107E1F70E942B060C94BC060C9429
:100090000000AC013091780020E002C02F5F3AE010
:1000A000822F90E084179507C8F33093780020934F
:1000B0007900089584E690E00E944900AA9A84E6B7
:1000C00090E00E944900AA9808951F93182FAA98BB
:1000D00095B385B382709870892B912F907F892B6F
:1000E00085BB0E945A0095B385B382709870892BA6
:1000F0001295107F812B85BB0E945A001F91089595
:100100001F93182F95B385B382709870892B912F08
:10011000907F892B85BBA89A0E945A0095B385B31E
:1001200082709870892B1295107F812B85BBA89ABD
:100130000E945A001F910895EF92FF921F93CF9350
:10014000DF937C01AA9810E01FC0103119F480ECF5
:100150000E94650085B395B392708870982B888152
:10016000807F982B95BBA89A0E945A0085B395B3BF
:1001700092708870982B88818295807F892B85BBAF
:10018000A89A0E945A001F5FE701C10FD11D888104
:100190008823D9F6DF91CF911F91FF90EF900895BA
:1001A00080580E946500089580540E94650008955B
:1001B000893029F480E20E94800080E206C08A3003
:1001C00021F480E00E94D40008950E9480000895E8
:1001D000EF92FF920F931F93082F64E60E94890607
:1001E00090E02CE93FEF829F7001839FF00C929F7B
:1001F000F00C1124C701800F911D6AE070E00E948D
:100200009506162F862F805D0E94D800005D0E0D8A
:1002100086EF9FEF189F102D1124812F800F0E94D1
:10022000D8001F910F91FF90EF900895EF92FF92E9
:100230000F931F93182F64E60E948906482F282FDA
:1002400030E08CE99FEF289F7001299FF00C389FC8
:10025000F00C1124C701810F911D6AE070E00E942B
:100260009506062F842F805D0E94D800802F805D28
:100270000E94D800105D1E0D86EF9FEF089F002D95
:100280001124802F810F0E94D8001F910F91FF90A1
:10029000EF9008950AC020E030E000002F5F3F4F4C
:1002A0004CE02C3C3407C9F701970097A1F708955B
:1002B0008FEF84BB8FE090E00E944A0183E00E94B0
:1002C00065008DE290E00E944A0182E00E94650094
:1002D0008FE090E00E944A01AA9881E00E946500A8
:1002E0008FE00E94650082E00E94650080E80E9425
:1002F00065008FE090E00E944A0108958E3409F471
:10030000A9C08F3420F48C3409F0A8C006C082350F
:10031000A1F1853509F0A2C05EC09498959A969A8D
:1003200097988CEA9DE020E931E0F9013197F1F7E7
:100330000197D9F7CB9BFECF84EF91E020E931E024
:10034000F9013197F1F70197D9F7949A959A969A0E
:10035000979A80917500909176008230910509F40A
:100360006DC08330910509F46EC08130910509F4A8
:100370005FC0049709F072C055C0949A95989698FA
:10038000979A8CEA9DE020E931E0F9013197F1F785
:100390000197D9F7CB9BFECF84EF91E020E931E0C4
:1003A000F9013197F1F70197D9F7949A959A969AAE
:1003B000979A80917500909176008130910509F4AB
:1003C00042C08230910571F18330910589F1049723
:1003D00009F044C033C0949A95989698979A88EB00
:1003E0009BE020E931E0F9013197F1F70197D9F766
:1003F000CB9BFECFCB99FECFCB9BFECF84EF91E082
:1004000020E931E0F9013197F1F70197D9F7949A92
:10041000959A969A979A809175009091760081307E
:10042000910519F483E090E010C08230910519F431
:1004300084E090E00AC08330910519F481E090E0F7
:1004400004C0049759F482E090E090937600809382
:1004500075000895949A959A969A979A08951F937D
:10046000CF93DF9310E5C4E5D1E060917E007091F9
:100470007F00409180005091810020918200309156
:100480008300CE9B05C0CF9B03C021E030E00AC0B3
:10049000CE9902C0CF9904C0CE9B04C0CF9902C0B0
:1004A00022E030E0C9990CC0CA990AC0CB9B08C0B1
:1004B000CC9906C0CD9904C0949A9598969A97982D
:1004C000CA9B09C0CB9B07C0CC9B05C0949A95984A
:1004D000969A979852C0CA9B0DC0CB9B0BC0CC99E3
:1004E00009C0969A9798949A959A812F8A95F1F7D0
:1004F00095980EC0CA9910C0CB9B0EC0CC9B0CC067
:10050000949A9598969A979A812F8A95F1F7979849
:10051000CE010197F1F731C0CA9908C0CB9906C046
:10052000CC9B04C0949A9598969A26C0CA9B08C002
:10053000CB9906C0CC9904C0969A9798949A0DC00E
:10054000C99B0DC0CA990BC0CB9909C0CC9907C0F3
:10055000CD9905C0969A97989498959A0EC0C99986
:100560000CC0CA990AC0CB9908C0CC9906C0CD9BD3
:1005700004C0949A95989698979AC99B02C0CD9971
:1005800002C040E050E0C99B08C0CA9B06C0CB9B9C
:1005900004C0CC9B02C0CD992CC0C9010197029721
:1005A00090F46115710579F45093810040938000B7
:1005B000309383002093820081E090E090937F004D
:1005C00080937E001EC0C9995CCFCA995ACFCB993F
:1005D00058CFCC9956CFCD9954CF509381004093AA
:1005E0008000309383002093820085E50E947E0185
:1005F0003CCF509381004093800030938300209340
:100600008200DF91CF911F91089580918000909199
:100610008100892BC1F58091750090917600813021
:10062000910531F480917A0090917B00019611C080
:100630008230910531F480917C0090917D0001968B
:1006400014C08330910551F480917A0090917B0021
:10065000019790937B0080937A000BC0049749F434
:1006600080917C0090917D00019790937D00809314
:100670007C0081E090E0909381008093800082B3C1
:1006800092E0892782BB089580917A0090917B0047
:10069000009751F480917C0090917D00079711F0B4
:1006A0008CE408958EE40895079711F083E508958A
:1006B00082E50895949A9598969A979888EB9BE08E
:1006C00020E931E0F9013197F1F70197D9F7949AD0
:1006D000959A969A979A0895949A9598969A979833
:1006E0008CED95E020E931E0F9013197F1F70197C0
:1006F000D9F7949A959A969A979A08959498959A74
:100700009698979A88EB9BE020E931E0F9013197C0
:10071000F1F70197D9F7949A959A969A979A08952E
:10072000DF92EF92FF920F931F93CF93DF93C0E07E
:10073000D0E090E9E92E91E0F92E80E5D82E04E58D
:1007400011E0C99B2AC0CA9B28C0CB9B26C0CC9B6A
:1007500024C0CD9B22C08EE40E947E0180E197E2FE
:10076000F7013197F1F70197D9F7AB9A0E945A0335
:100770008EE40E947E01AB98C99996C0CA9994C034
:10078000CB9992C0CC9990C0CD998EC0209711F092
:1007900082E501C08CE40E947E01C9990CC0CA990F
:1007A0000AC0CB9B08C0CC9906C0CD9904C0949ACE
:1007B0009598969A9798CA9B09C0CB9B07C0CC9BEB
:1007C00005C0949A9598969A979852C0CA9B0DC066
:1007D000CB9B0BC0CC9909C0969A9798949A959AFE
:1007E0008D2D8A95F1F795980EC0CA9910C0CB9BB4
:1007F0000EC0CC9B0CC0949A9598969A979A8D2D82
:100800008A95F1F79798C8010197F1F731C0CA9915
:1008100008C0CB9906C0CC9B04C0949A9598969A30
:1008200026C0CA9B08C0CB9906C0CC9904C0969A32
:100830009798949A0DC0C99B0DC0CA990BC0CB99CB
:1008400009C0CC9907C0CD9905C0969A97989498FD
:10085000959A0EC0C9990CC0CA990AC0CB9908C014
:10086000CC9906C0CD9B04C0949A95989698979A77
:10087000CD9B02C0C1E0D0E0C99B02C0C0E0D0E087
:10088000C9995FCFCA995DCFCB995BCFCC9959CF2E
:10089000CD9957CF0E946C03209711F082E501C0DB
:1008A0008CE40E947E014DCFDF91CF911F910F917B
:1008B000FF90EF90DF900895EF92FF920F931F93B8
:1008C000CF93DF930E945A0300918400109185001A
:1008D000C0918600D09187000115110521F4C13027
:1008E000D10509F482C08091750090917600813025
:1008F000910531F4209711F485E506C08CE404C01D
:100900008330910521F482E58093890003C002972A
:1009100019F485E50E947E0121E0E22EF12C0E946F
:100920002F028091800090918100892BE1F48091C9
:100930007500909176008330910519F401501040B4
:100940000EC08430910511F4219709C082309105C1
:1009500011F4219604C0019711F40F5F1F4FF0921C
:100960008100E09280000E945A030115110519F4DC
:10097000C130D10521F1209751F41016110684F4ED
:1009800080917500909176000497A9F412C0C1304F
:10099000D10531F48091750090917600049749F06B
:1009A0000115110541F4809175009091760003972F
:1009B00011F48CE401C083E50E947E01B0CF8091E8
:1009C000750090917600029729F482E50E947E01DD
:1009D0000E945A038091750090917600049729F443
:1009E0008CE40E947E010E945A03DF91CF911F91F7
:1009F0000F91FF90EF900895EF92FF920F931F9346
:100A0000CF93DF9381E090E0909376008093750020
:100A100020918400309185002115310539F48091B1
:100A2000860090918700019709F471C0809186003B
:100A300090918700029710F48CE405C0232B11F0ED
:100A400083E501C082E50E947E0100E010E0C1E084
:100A5000D0E031E0E32EF12C0E942F028091800043
:100A600090918100892BE1F480917500909176003E
:100A70008230910511F421960FC08130910519F44F
:100A80000F5F1F4F09C08330910519F401501040CA
:100A900003C0049709F42197F0928100E09280004E
:100AA0000E945A0320918400309185000217130799
:100AB00039F48091860090918700C817D907E9F032
:100AC000209721F40115110521F406C0C230D1058B
:100AD00028F40217130711F482E50CC0021713075C
:100AE00040F08091860090918700C817D90709F4DB
:100AF000B3CF83E50E947E01AFCF8091890082351C
:100B000031F0853531F08C3439F48CE403C082E562
:100B100001C083E50E947E01DF91CF911F910F916B
:100B2000FF90EF900895209182003091830021156D
:100B3000310509F48FC080917E0090917F00892B50
:100B400009F488C0215030402230310508F082C0BD
:100B50008EE40E947E0120E030E048EC50E0C09A34
:100B6000C198CA010197F1F7C09AC19ACA010197C9
:100B7000F1F72F5F3F4FAB9A8FE0203A380779F7B4
:100B8000AB980E942F0280917A0090917B00909305
:100B900085008093840080917C0090917D009093EB
:100BA0008700809386000E945C048EE40E947E0190
:100BB0000E9490038EE40E947E010E947E030E94A8
:100BC0007E0320E030E044E551E060E5C098C19A42
:100BD000CA010197F1F7C09AC19A862F8A95F1F759
:100BE0002F5F3F4FAB9A8FE0203A380779F7AB98E9
:100BF0000E947E0382E50E947E01809175009091A3
:100C000076008130910519F483E090E010C08230C5
:100C1000910519F484E090E00AC08330910519F43D
:100C200081E090E004C0049731F482E090E090937A
:100C30007600809375000E9490038EE40E947E01EE
:100C40000E94FC04109283001092820010927F0098
:100C500010927E00089581B3806381BB81B3806C64
:100C600081BB87B3836087BBA39A899AC59A0E9488
:100C70005801A99A80E00E94D0001092880080E07C
:100C80000E94D00080E690E00E949C0080917A0053
:100C90000E94E80083E690E00E949C0080917C0026
:100CA0000E94E80086E690E00E949C00809175001A
:100CB0000E94E8000E942F020E9405030E949305F3
:100CC0000E944403809388000E945A038091880008
:100CD0000E947E0180E00E94D400809188000E94E2
:100CE000D80089E690E00E949C00809184000E94D8
:100CF000E8008FE690E00E949C00809186000E94B0
:100D0000E800809188008E3409F0B7CF80E090E051
:100D10000895991B79E004C0991F961708F0961B57
:100D2000881F7A95C9F78095089597FB092E0726A5
:100D30000AD077FD04D00CD006D000201AF47095AC
:100D400061957F4F0895F6F7909581959F4F08958F
:100D5000AA1BBB1B51E107C0AA1FBB1FA617B707E1
:100D600010F0A61BB70B881F991F5A95A9F78095FD
:0C0D70009095BC01CD010895F894FFCFD0
:100D7C00783A00793A006F3A006F78203A20006F89
:080D8C0079203A20000100006B
:00000001FF
