:100000000C942A000C9447000C9447000C94470071
:100010000C9447000C9447000C9447000C94470044
:100020000C9447000C9447000C9447000C9418164D
:100030000C9447000C9447000C9447000C94470024
:100040000C9447000C9447000C9447000C94470014
:100050000C94470011241FBECFE5D8E0DEBFCDBF12
:1000600010E0A0E6B0E0E8ECFCE202C005900D92E2
:10007000AA3FB107D9F716E0AAEFB0E001C01D9280
:10008000AE3AB107E1F70E9481150C9462160C9408
:100090000000AC013091FA0020E002C02F5F3AE08E
:1000A000822F90E084179507C8F33093FA002093CD
:1000B000FB0008952091FA0090E002C09F5F2BE0C2
:1000C0009817E0F32093FA009093FB000895AA9804
:1000D00088EC0E945A00AA9A88EC0E945A00AA98BA
:1000E00008950F931F93082F85B3887F85BB802FBA
:1000F000807F85BB0E94670010E00F70107084E065
:10010000000F111F8A95E1F705BB0E9467001F9140
:100110000F9108951F93182F81E085BB15BA812F89
:10012000807F816085BB0E9467001295107F1160FF
:1001300015BB0E9467001F910895EF92FF921F93D5
:10014000CF93DF937C0181E085BB15BA10E013C02B
:10015000103119F480EC0E9471008881807F8160E9
:1001600085BB0E94670088818295807F816085BB06
:100170000E9467001F5FE701C10FD11D888188239E
:1001800039F7DF91CF911F91FF90EF900895EF9293
:10019000FF920F931F93182F64E60E942F16482F8B
:1001A000282F30E08CE99FEF289F7001299FF00CE9
:1001B000389FF00C1124C701810F911D6AE070E097
:1001C0000E943B16062F842F805D0E948A00802F9C
:1001D000805D0E948A00105D1E0D86EF9FEF089FD4
:1001E000002D1124802F810F0E948A001F910F91F2
:1001F000FF90EF900895EF92FF920F931F93082FB7
:1002000064E60E942F1690E02CE93FEF829F700178
:10021000839FF00C929FF00C1124C701800F911D59
:100220006AE070E00E943B16162F862F805D0E94C8
:100230008A00005D0E0D86EF9FEF189F102D112490
:10024000812F800F0E948A001F910F91FF90EF90E5
:10025000089580580E947100089580540E94710092
:1002600008950AC020E030E000002F5F3F4F4CE0CF
:100270002C3C3407C9F701970097A1F7089584E152
:1002800090E00E94310185B38093FC008FEF84BB26
:100290008FE090E00E94310180E285BB81E00E9406
:1002A000710082E00E94710080E80E94710084E188
:1002B00090E00E943101089581E00E94710008954C
:1002C00020E030E013C01182108213821282158266
:1002D00014820196389688309105A9F72F5F3F4F19
:1002E0002830310519F440E050E01FC0F90146E024
:1002F000EE0FFF1F4A95E1F7ED56FB4F80E090E0CF
:10030000E2CF8D919D91918380832F5F3F4F3896EF
:1003100028303105B1F74F5F5F4F4830510529F460
:1003200020E030E04CE350E023C0DA0194E0AA0F73
:10033000BB1F9A95E1F7AC58BF4FFA0186E0EE0F6C
:10034000FF1F8A95E1F7EF56FB4F20E030E0D9CF51
:1003500011821082138212821582148201963696BF
:100360008A309105A9F72F5F3F4F2A303105E1F020
:10037000249FF001259FF00D349FF00D1124EB59BF
:10038000FE4F80E090E0E4CF4193519301968A3094
:100390009105D1F72F5F3F4F2A30310559F444E8DA
:1003A00050E021E030E021C020E030E064E170E086
:1003B00044E650E0269FF001279FF00D369FF00D98
:1003C0001124ED53FC4F80E090E0DECF8D919D91A4
:1003D00081939193A417B507C9F72F5F3F4FAD01E4
:1003E000405F5F4F29303105C1F0D901E4E0AA0F29
:1003F000BB1FEA95E1F7AC59BF4FF901EE0FFF1FA4
:10040000C90163E0880F991F6A95E1F7E80FF91FAA
:10041000EE0FFF1FEB53FC4FD9CF80E090E02EE4AE
:10042000FC01E85EFE4F2083FC01E45BFE4F20836D
:10043000FC01EF56F94F2083FC01EF5CFE4F208357
:1004400001968931910561F7089580910B01909192
:100450000C01892BD9F58091030190910401892B1E
:10046000A9F588B380917200909173008130910555
:1004700031F48091FD009091FE00019611C0823010
:10048000910531F48091FF0090910001019714C013
:100490008330910551F48091FD009091FE00019709
:1004A0009093FE008093FD000BC0049749F4809167
:1004B000FF00909100010196909300018093FF004E
:1004C00081E090E09093040180930301089580916E
:1004D0000B0190910C01892BC1F48091FD0090914A
:1004E000FE00009741F48091FF0090910001079772
:1004F00069F082E508958730910511F48CE4089540
:100500000197069710F483E5089508958EE4089501
:1005100078941092100110920F0185E083BF89B783
:10052000816089BF12BE0895EF92FF920F931F93CF
:10053000CF93DF938091090190910A01019739F5DA
:10054000E091FD00F091FE0073E0EE0FFF1F7A9541
:10055000E1F78091FF0090910001E80FF91F63E03F
:10056000EE0FFF1F6A95E1F7EF56FB4F84E690E030
:100570009183808310920A011092090180910701F2
:100580009091080101969093080180930701E090F3
:100590000B01F0900C0181E0E816F10409F004C1B0
:1005A000C0917200D0917300C130D10509F58091DE
:1005B000FD009091FE00BC016F5F7F4F2091FF0016
:1005C00030910001DB0153E0AA0FBB1F5A95E1F700
:1005D000A20FB31FFD0143E0EE0FFF1F4A95E1F7A5
:1005E000ED56FB4F91838083A9014F5F5F4F15C28A
:1005F000C230D10509F04EC02091FF0030910001BA
:10060000B9016F5F7F4F4091FD005091FE00CA011C
:100610000197DA0103E0AA0FBB1F0A95E1F7A60FC5
:10062000B71FFD0113E0EE0FFF1F1A95E1F7ED561E
:10063000FB4F9183808303E0AA0FBB1F0A95E1F76C
:10064000FD01EB56FB4F31832083AF56BB4F17960E
:10065000DC93CE931697B3E0880F991FBA95E1F714
:10066000820F931FFC01A3E0EE0FFF1FAA95E1F795
:10067000ED56FB4F51834083E3E0880F991FEA95C5
:10068000E1F7FC01EB56FB4F718360838F569B4F64
:10069000FC0187C0C330D10589F58091FD009091A0
:1006A000FE00BC01615070402091FF0030910001BC
:1006B000DB0143E0AA0FBB1F4A95E1F7A20FB31F6E
:1006C000FD0103E0EE0FFF1F0A95E1F7ED56FB4F2A
:1006D00091838083A9014150504013E0AA0FBB1FB2
:1006E0001A95E1F7FD01EB56FB4F51834083AF565E
:1006F000BB4F1796FC92EE9216979FC1249709F074
:10070000F2C34091FF00509100018A010150104056
:100710006091FD007091FE009B012F5F3F4FDB0158
:10072000E3E0AA0FBB1FEA95E1F7A00FB11FFD019F
:1007300093E0EE0FFF1F9A95E1F7ED56FB4F3183E3
:10074000208383E0AA0FBB1F8A95E1F7FD01EB56DA
:10075000FB4F51834083AF56BB4F82E090E017962A
:100760009C938E931697E3E0220F331FEA95E1F7EF
:10077000240F351FF90143E0EE0FFF1F4A95E1F703
:10078000ED56FB4F7183608393E0220F331F9A95E0
:10079000E1F7F901EB56FB4F118300832F563B4FD6
:1007A000F901F782E6829FC3F2E0EF16F10409F047
:1007B00007C1C0917200D0917300C130D10509F01A
:1007C0004EC06091FF00709100012091FD003091BA
:1007D000FE00C9010196D90103E0AA0FBB1F0A95CB
:1007E000E1F7A60FB71FFD0113E0EE0FFF1F1A95EB
:1007F000E1F7ED56FB4F91838083AB014F5F5F4F75
:10080000E3E0AA0FBB1FEA95E1F7FD01EB56FB4FB2
:1008100051834083AF56BB4F1796DC93CE93169708
:1008200013E0880F991F1A95E1F7840F951FFC01BB
:10083000B3E0EE0FFF1FBA95E1F7ED56FB4F3183A2
:100840002083A3E0880F991FAA95E1F7FC01EB56DE
:10085000FB4F718360838F569B4FEC0163C0C230A6
:10086000D10561F46091FF00709100018091FD005D
:100870009091FE009C01215030404EC2C330D10502
:1008800009F053C06091FF00709100014091FD009C
:100890005091FE009A0121503040DA01E3E0AA0FA6
:1008A000BB1FEA95E1F7A60FB71FFD0193E0EE0F1E
:1008B000FF1F9A95E1F7ED56FB4F318320838B01A3
:1008C0000150104083E0AA0FBB1F8A95E1F7FD019C
:1008D000EB56FB4F11830083AF56BB4F81E090E096
:1008E00017969C938E931697E3E0220F331FEA9599
:1008F000E1F7200F311FF90193E0EE0FFF1F9A95EA
:10090000E1F7ED56FB4F5183408383E0220F331F05
:100910008A95E1F7F901EB56FB4F718360832F56FF
:100920003B4FE901FF82EE82DEC2249709F0DBC271
:100930004091FF00509100012091FD003091FE0098
:10094000D9011196BA0161507040F90113E0EE0F20
:10095000FF1F1A95E1F7E40FF51F93E0EE0FFF1F5D
:100960009A95E1F7CF018B569B4FEC017983688311
:10097000ED56FB4FF182E08203E0AA0FBB1F0A9500
:10098000E1F7A60FB71FFD0113E0EE0FFF1F1A9549
:10099000E1F7ED56FB4F3183208373E0AA0FBB1FB5
:1009A0007A95E1F7FD01EB56FB4F51834083AF563B
:1009B000BB4F81E090E017969C938E93169793C25D
:1009C000E3E0EE16F10409F049C1C0917200D09144
:1009D0007300C130D10509F053C08091FD009091A2
:1009E000FE00BC016F5F7F4F2091FF00309100013E
:1009F000DB0153E0AA0FBB1F5A95E1F7A20FB31F0B
:100A0000FD0143E0EE0FFF1F4A95E1F7ED56FB4F66
:100A100091838083A9014150504003E0AA0FBB1F7E
:100A20000A95E1F7FD01EB56FB4F51834083AF562A
:100A3000BB4F1796DC93CE931697B3E0880F991FA0
:100A4000BA95E1F7840F951FFC01A3E0EE0FFF1F9D
:100A5000AA95E1F7ED56FB4F71836083F3E0880FB1
:100A6000991FFA95E1F7FC01EB56FB4F3183208388
:100A70008F569B4F22E030E0EC013F832E8333C240
:100A8000C230D10509F047C02091FF00309100012C
:100A9000A9014F5F5F4FA091FD00B091FE00CD0115
:100AA000019673E0AA0FBB1F7A95E1F7A40FB51F5B
:100AB000FD0163E0EE0FFF1F6A95E1F7ED56FB4F76
:100AC0009183808303E0AA0FBB1F0A95E1F7FD0124
:100AD000EB56FB4F31832083AF56BB4F1796DC9309
:100AE000CE931697F3E0880F991FFA95E1F7820FDE
:100AF000931FE3E0880F991FEA95E1F7FC01EB569D
:100B0000FB4F518340838D569B4F21E030E0FC0129
:100B100031832083E8C1C330D10509F04EC08091F4
:100B2000FD009091FE008C01015010404091FF00AB
:100B300050910001D80163E0AA0FBB1F6A95E1F74D
:100B4000A40FB51FFD0133E0EE0FFF1F3A95E1F74B
:100B5000ED56FB4F91838083BA016F5F7F4F23E097
:100B6000AA0FBB1F2A95E1F7FD01EB56FB4F7183DE
:100B70006083AF56BB4F21E030E017963C932E9335
:100B80001697E3E0880F991FEA95E1F7860F971F04
:100B9000FC0133E0EE0FFF1F3A95E1F7ED56FB4FF6
:100BA0001183008323E0880F991F2A95E1F7FC0148
:100BB000EB56FB4F518340835BCF249709F093C1E1
:100BC0004091FF00509100018A0101501040609156
:100BD000FD007091FE009B0121503040DB0193E04D
:100BE000AA0FBB1F9A95E1F7A00FB11FFD0183E08B
:100BF000EE0FFF1F8A95E1F7ED56FB4F31832083FF
:100C000093E0AA0FBB1F9A95E1F7FD01EB56FB4F4E
:100C100051834083AF56BB4F82E090E017969C9380
:100C20008E931697B3E0220F331FBA95E1F7240F86
:100C3000351FF901A3E0EE0FFF1FAA95E1F7ED566E
:100C4000FB4F7183608353E0220F331F5A95E1F706
:100C5000F901EB56FB4F118300833EC1F4E0EF1620
:100C6000F10409F040C1C0917200D0917300C1300D
:100C7000D10509F042C06091FF00709100018091A0
:100C8000FD009091FE009C012F5F3F4FDC0143E08F
:100C9000AA0FBB1F4A95E1F7A60FB71FFD0103E09E
:100CA000EE0FFF1F0A95E1F7ED56FB4F31832083CE
:100CB000AB014150504013E0AA0FBB1F1A95E1F75A
:100CC000FD01EB56FB4F51834083AF56BB4F179648
:100CD000DC93CE931697E3E0220F331FEA95E1F7FA
:100CE000240F351FF90153E0EE0FFF1F5A95E1F76E
:100CF000ED56FB4F918380838DC0C230D10509F042
:100D000042C06091FF00709100018091FD009091C0
:100D1000FE009C012F5F3F4FDC0143E0AA0FBB1F89
:100D20004A95E1F7A60FB71FFD0103E0EE0FFF1F85
:100D30000A95E1F7ED56FB4F31832083AB014F5FFE
:100D40005F4F13E0AA0FBB1F1A95E1F7FD01EB56A9
:100D5000FB4F51834083AF56BB4F1796DC93CE9326
:100D60001697E3E0220F331FEA95E1F7240F351FB2
:100D7000F90143E0EE0FFF1F4A95E1F7ED56FB4FF7
:100D8000918380839FC0C330D10509F055C0609125
:100D9000FF00709100014091FD005091FE009A010A
:100DA00021503040DA0103E0AA0FBB1F0A95E1F79A
:100DB000A60FB71FFD0113E0EE0FFF1F1A95E1F715
:100DC000ED56FB4F318320838B010F5F1F4F93E064
:100DD000AA0FBB1F9A95E1F7FD01EB56FB4F11835C
:100DE0000083AF56BB4F81E090E017969C938E93A3
:100DF0001697B3E0220F331FBA95E1F7200F311F8A
:100E0000F901A3E0EE0FFF1FAA95E1F7ED56FB4FA6
:100E10005183408393E0220F331F9A95E1F7F90144
:100E2000EB56FB4F718360832F563B4F82E090E07F
:100E3000E9019F838E8357C0249709F054C06091C5
:100E4000FF00709100014091FD005091FE009A0159
:100E500021503040DA0103E0AA0FBB1F0A95E1F7E9
:100E6000A60FB71FFD0113E0EE0FFF1F1A95E1F764
:100E7000ED56FB4F318320838B010150104093E0EE
:100E8000AA0FBB1F9A95E1F7FD01EB56FB4F1183AB
:100E90000083AF56BB4F82E090E017969C938E93F1
:100EA0001697B3E0220F331FBA95E1F7200F311FD9
:100EB000F901A3E0EE0FFF1FAA95E1F7ED56FB4FF6
:100EC00051834083E3E0220F331FEA95E1F7F901F4
:100ED000EB56FB4F718360832F563B4F81E090E0D0
:100EE000F9019783868310920C0110920B01DF9118
:100EF000CF911F910F91FF90EF900895CF93DF93C3
:100F000080918D0490918E0421E030E06CE370E0DC
:100F100047C0F90196E0EE0FFF1F9A95E1F7EF56F3
:100F2000FB4FE901CC0FDD1FC901B3E0880F991F0A
:100F3000BA95E1F7C80FD91FCC0FDD1FCB53DC4F9B
:100F4000269FD001279FB00D369FB00D1124AB59BD
:100F5000BE4F40E050E019C0E854F04081919191BB
:100F6000899399938191919111969C938E938191FC
:100F7000919113969C938E93129780819181EE5B51
:100F8000FF4F15969C938E9314974F5F5F4F389643
:100F900016964930510501F72F5F3F4F89E090E0E9
:100FA0002930310508F4B5CF90938E0480938D04D9
:100FB00030938C0420938B04DF91CF9108958E346D
:100FC00009F4A9C08F3420F48C3409F0A8C006C0FD
:100FD0008235A1F1853509F0A2C05EC09498959A3A
:100FE000969A97988CEA9DE020E931E0F9013197D3
:100FF000F1F70197D9F7CB9BFECF84EF91E020E981
:1010000031E0F9013197F1F70197D9F7949A959A60
:10101000969A979A80917200909173008230910510
:1010200009F46DC08330910509F46EC081309105DB
:1010300009F45FC0049709F072C055C0949A95985E
:101040009698979A8CEA9DE020E931E0F901319772
:10105000F1F70197D9F7CB9BFECF84EF91E020E920
:1010600031E0F9013197F1F70197D9F7949A959A00
:10107000969A979A809172009091730081309105B1
:1010800009F442C08230910571F18330910589F1F4
:10109000049709F044C033C0949A95989698979A0B
:1010A00088EB9BE020E931E0F9013197F1F70197F6
:1010B000D9F7CB9BFECFCB99FECFCB9BFECF84EF56
:1010C00091E020E931E0F9013197F1F70197D9F783
:1010D000949A959A969A979A80917200909173003B
:1010E0008130910519F483E090E010C082309105C1
:1010F00019F484E090E00AC08330910519F481E08E
:1011000090E004C0049759F482E090E0909373005B
:10111000809372000895949A959A969A979A089552
:101120008091030190910401892BC1F58091720097
:10113000909173008130910531F48091FD00909180
:10114000FE00019611C08230910531F48091FF00BC
:1011500090910001019614C08330910551F4809163
:10116000FD009091FE0001979093FE008093FD009A
:101170000BC0049749F48091FF0090910001019702
:10118000909300018093FF0081E090E09093040130
:101190008093030182B392E0892782BB08958091F6
:1011A000FD009091FE00009751F48091FF00909116
:1011B0000001079711F082E508958EE408950797DE
:1011C00011F083E508958CE40895949A9598969A81
:1011D000979884EC99E020E931E0F9013197F1F733
:1011E0000197D9F7949A959A969A979A0895949810
:1011F000959A9698979A88EB9BE020E931E0F9015F
:101200003197F1F70197D9F7949A959A969A979A08
:101210000895CA9B07C0CB9B05C0CC9B03C0949A82
:10122000959808C0CA9B09C0CB9B07C0CC9905C044
:10123000949A959A969A9798ECCFCA9908C0CB9BA6
:1012400006C0CC9B04C0949A9598969A09C0CA99F6
:1012500009C0CB9907C0CC9B05C0949A95989698E5
:10126000979AD7CFCA9B06C0CB9904C0CC9902C02D
:101270009498DFCFC9990AC0CA9B08C0CB9B06C00F
:10128000CC9B04C0CD9B02C082E521C0C99B0AC093
:10129000CA9B08C0CB9B06C0CC9B04C0CD9902C0A2
:1012A0008CE415C0C99B08C0CA9B06C0CB9B04C078
:1012B000CC9B02C0CD990EC0C999ABCFCA99A9CF1A
:1012C000CB99A7CFCC99A5CFCD99A3CF85E50E9487
:1012D000DF079FCF08959C01FC01EE0FFF1FC9019E
:1012E000B3E0880F991FBA95E1F7E80FF91FE60FF1
:1012F000F71FEE0FFF1FED53FC4F80819181843665
:10130000910539F08E31910539F484E690E09183AE
:101310008083A4E6B0E0B9C0892B19F4A0E0B0E066
:10132000B4C0C9010197DC01F3E0AA0FBB1FFA9515
:10133000E1F7880F991FA80FB91FA60FB71FAA0FB3
:10134000BB1FAD53BC4FC9010196FC0143E0EE0F3A
:10135000FF1F4A95E1F7880F991FE80FF91FE60F65
:10136000F71FEE0FFF1FED53FC4F0190F081E02DB2
:101370004D915C91E417F5070CF4AF01DB01AA0F66
:10138000BB1FA60FB71FAA0FBB1F8CE390E0FC0189
:101390002E9FC0012F9F900D3E9F900D1124A80FEE
:1013A000B91FAB59BE4F8C9111969C911197FC01BE
:1013B000EE0FFF1FEE0FFF1FEE0FFF1F880F991F8D
:1013C000E80FF91F12968D919C911397E80FF91F62
:1013D000EE0FFF1FED53FC4F0190F081E02DDA017D
:1013E000E417F5070CF4DF01F901EE0FFF1FC90147
:1013F00043E0880F991F4A95E1F7E80FF91FE60FC0
:10140000F71FEE0FFF1FEF53FC4F0190F081E02D0F
:10141000EA17FB070CF4DF01F901EE0FFF1FC9010A
:1014200043E0880F991F4A95E1F7E80FF91FE60F8F
:10143000F71FEE0FFF1FEB53FC4F0190F081E02DE3
:10144000CD01EA17FB070CF4CF01F901EE0FFF1FE6
:1014500043E0220F331F4A95E1F78436910549F4A2
:10146000E20FF31FE60FF71FEE0FFF1FED53FC4FC8
:101470004ECFDC011196E20FF31FE60FF71FEE0FC0
:10148000FF1FED53FC4FB183A083CD0108952F9230
:101490003F924F925F926F927F928F929F92AF9204
:1014A000BF92CF92DF92EF92FF920F931F93CF9351
:1014B000DF936091F6007091F7004091F800509131
:1014C000F900DB01AA0FBB1FCB0133E0880F991F86
:1014D0003A95E1F7A80FB91FFD01E40FF51FEE0FD4
:1014E000FF1FEF53FC4F408051804A010894811C3C
:1014F000911CA80DB91DAA0FBB1FAD53BC4FED9099
:10150000FC905B010894A108B108F501EE0FFF1FE4
:10151000C50103E0880F991F0A95E1F7E80FF91F4D
:10152000E40FF51FEE0FFF1FED53FC4F00811181FB
:101530006B010894C11CD11CF601EE0FFF1FC60100
:10154000A3E0880F991FAA95E1F7E80FF91FE40FB0
:10155000F51FEE0FFF1FED53FC4FC081D181FA0143
:10156000EE0FFF1FE40FF51FEE0FFF1F8CE390E05F
:101570009C01629FC001639F900D729F900D11248A
:10158000E80FF91FEB59FE4FA081B1816280738093
:10159000FD01EE0FFF1FCD0133E0880F991F3A9533
:1015A000E1F7E80FF91FE60DF71DEE0FFF1FED53F2
:1015B000FC4F208031802091F4003091F5002130E3
:1015C000310541F4E0910D01F0910E01E85EFE4F0E
:1015D00082E520C02230310541F4E0910D01F09107
:1015E0000E01E85EFE4F83E515C02330310541F45E
:1015F000E0910D01F0910E01E85EFE4F8CE40AC00F
:101600002430310541F4E0910D01F0910E01E85EC6
:10161000FE4F85E58083E414F50414F0C2012DC06B
:101620002130310541F4E0910D01F0910E01E85EA9
:10163000FE4F8CE420C02230310541F4E0910D01D1
:10164000F0910E01E85EFE4F85E515C023303105AF
:1016500041F4E0910D01F0910E01E85EFE4F82E54C
:101660000AC02430310541F4E0910D01F0910E01E2
:10167000E85EFE4F83E58083C701081719076CF504
:101680002130310541F4E0910D01F0910E01E85E49
:10169000FE4F85E520C02230310541F4E0910D0177
:1016A000F0910E01E85EFE4F82E515C02330310552
:1016B00041F4E0910D01F0910E01E85EFE4F83E5EB
:1016C0000AC02430310541F4E0910D01F0910E0182
:1016D000E85EFE4F8CE48083C801C817D9076CF51B
:1016E0002130310541F4E0910D01F0910E01E85EE9
:1016F000FE4F83E520C02230310541F4E0910D0119
:10170000F0910E01E85EFE4F8CE415C023303105E8
:1017100041F4E0910D01F0910E01E85EFE4F85E588
:101720000AC02430310541F4E0910D01F0910E0121
:10173000E85EFE4F82E58083CE01281639060CF064
:1017400089C2CD01861B970BD301A41BB50B813039
:10175000910509F033C1A130B10509F0E3C2FA01E6
:10176000EE0FFF1FE40FF51FEE0FFF1F8CE390E05D
:10177000AC01649FC001659F900D749F900D112472
:10178000E80FF91FEB59FE4F448155814130510557
:10179000B1F52130310541F4E0910D01F0910E01D8
:1017A000E85EFE4F8CE421C02230310541F4E09127
:1017B0000D01F0910E01E85EFE4F85E516C0233065
:1017C000310549F4E0910D01F0910E01E85EFE4F04
:1017D00082E580830CC02430310559F4E0910D017D
:1017E000F0910E01E85EFE4F83E5808382E5818300
:1017F000828381E090E09093F5008093F400423082
:101800005105C9F58091F4009091F5008130910562
:1018100041F4E0910D01F0910E01E85EFE4F83E589
:1018200020C08230910549F4E0910D01F0910E0144
:10183000E85EFE4F8CE4808316C08330910541F44E
:10184000E0910D01F0910E01E85EFE4F85E509C0C3
:10185000049759F4E0910D01F0910E01E85EFE4FFE
:1018600082E580838CE48183828384E090E090939E
:10187000F5008093F400D092F700C092F6009092A9
:10188000F9008092F8004EC24091F6005091F700A6
:101890002091F8003091F900F901EE0FFF1FE20FDF
:1018A000F31FEE0FFF1F8CE390E0BC01469FC001C9
:1018B000479F900D569F900D1124E80FF91FEB598B
:1018C000FE4F6481758161307105C9F58091F40026
:1018D0009091F5008130910541F4E0910D01F09176
:1018E0000E01E85EFE4F82E520C08230910541F492
:1018F000E0910D01F0910E01E85EFE4F83E515C009
:101900008330910549F4E0910D01F0910E01E85EFC
:10191000FE4F8CE480830BC0049759F4E0910D01D5
:10192000F0910E01E85EFE4F85E580838CE48183B3
:10193000828381E090E09093F5008093F400623020
:101940007105C9F58091F4009091F5008130910501
:1019500041F4E0910D01F0910E01E85EFE4F83E548
:1019600015C08230910541F4E0910D01F0910E0116
:10197000E85EFE4F8CE40AC08330910551F4E0919B
:101980000D01F0910E01E85EFE4F85E5808382E552
:101990000AC0049751F4E0910D01F0910E01E85E48
:1019A000FE4F82E580838183828382E090E0909382
:1019B000F5008093F4004F5F5F4F38C18F5F9F4FFA
:1019C00009F03EC1A130B10509F0B1C1FA01EE0F35
:1019D000FF1FE40FF51FEE0FFF1F8CE390E0AC013B
:1019E000649FC001659F900D749F900D1124E80FB6
:1019F000F91FEB59FE4F4481558141305105C1F526
:101A00002130310559F4E0910D01F0910E01E85EAD
:101A1000FE4F8CE480838183828316C0223031059F
:101A200041F4E0910D01F0910E01E85EFE4F85E575
:101A300015C02330310541F4E0910D01F0910E0104
:101A4000E85EFE4F82E50AC02430310559F4E0918A
:101A50000D01F0910E01E85EFE4F83E580838CE47A
:101A60008183828383E090E09093F5008093F4007B
:101A700042305105C9F58091F4009091F500813014
:101A8000910541F4E0910D01F0910E01E85EFE4FE9
:101A900085E520C08230910549F4E0910D01F09177
:101AA0000E01E85EFE4F82E5808316C0833091050B
:101AB00041F4E0910D01F0910E01E85EFE4F83E5E7
:101AC00009C0049759F4E0910D01F0910E01E85E10
:101AD000FE4F8CE4808382E58183828384E090E002
:101AE0009093F5008093F400B092F700A092F60076
:101AF0009092F9008092F8001AC14091F60050913E
:101B0000F7002091F8003091F900F901EE0FFF1F66
:101B1000E20FF31FEE0FFF1F8CE390E0BC01469F26
:101B2000C001479F900D569F900D1124E80FF91F9B
:101B3000EB59FE4F6481758161307105C9F5809163
:101B4000F4009091F5008130910549F4E0910D0188
:101B5000F0910E01E85EFE4F82E5808321C0823065
:101B6000910541F4E0910D01F0910E01E85EFE4F08
:101B700083E514C08330910541F4E0910D01F091AB
:101B80000E01E85EFE4F8CE409C0049759F4E09121
:101B90000D01F0910E01E85EFE4F85E5808382E540
:101BA0008183828383E090E09093F5008093F4003A
:101BB00062307105C9F58091F4009091F500813093
:101BC000910541F4E0910D01F0910E01E85EFE4FA8
:101BD00085E515C08230910541F4E0910D01F09149
:101BE0000E01E85EFE4F82E50AC08330910551F494
:101BF000E0910D01F0910E01E85EFE4F83E58083D8
:101C00008CE40AC0049751F4E0910D01F0910E01AB
:101C1000E85EFE4F8CE480838183828382E090E0E3
:101C20009093F5008093F400415050405093F7009A
:101C30004093F600215030403093F9002093F80093
:101C400080910D0190910E01039690930E01809367
:101C50000D01C10148165906A9F482E090E0909365
:101C6000F5008093F40080910D0190910E01019692
:101C700090930E0180930D018091F8009091F900EE
:101C8000019717C0E816F906C9F484E090E0909334
:101C9000F5008093F40080910D0190910E01019662
:101CA00090930E0180930D018091F8009091F900BE
:101CB00001969093F9008093F8003EC00817190729
:101CC000A9F483E090E09093F5008093F400809174
:101CD0000D0190910E01019690930E0180930D01DC
:101CE0008091F6009091F700019717C0C817D907A7
:101CF00019F581E090E09093F5008093F4008091D5
:101D00000D0190910E01019690930E0180930D01AB
:101D10008091F6009091F70001969093F7008093E0
:101D2000F6000AC0AF5FBF4F09F08ACFADCDAF5FFD
:101D3000BF4F09F085CFE1CEDF91CF911F910F9179
:101D4000FF90EF90DF90CF90BF90AF909F908F90DB
:101D50007F906F905F904F903F902F900895EF92FB
:101D6000FF920F931F93CF93DF9383E090E09093C4
:101D7000F5008093F40088E090E09093F700809362
:101D8000F60086E090E09093F9008093F80001ED72
:101D900014E0B80121E030E040E050E016C0888156
:101DA00099818436910519F08D919C9111979183B9
:101DB0008083289632961296C617D70781F72F5F31
:101DC0003F4F605C7F4F4F5F5F4F2930310504F517
:101DD000EA0186E0CC0FDD1F8A95E1F7CF56DB4F95
:101DE000F901EE0FFF1FC901A3E0880F991FAA9503
:101DF000E1F7E80FF91FEE0FFF1FEB53FC4FDA017D
:101E000084E0AA0FBB1F8A95E1F7AC58BF4FC7CF3C
:101E100081E090E047C080911301909114010196F8
:101E20009093140180931301C1E0D0E080911301DD
:101E30009091140101969093140180931301809165
:101E4000C1039091C203BE010E946B098093AC064E
:101E50009093AD069C01E091C103F091C2033197CC
:101E6000219773E0EE0FFF1F7A95E1F7EC0FFD1F4E
:101E70002196EE0FFF1FEC58FF4F808191812817AC
:101E8000390739F0318320831092C2031092C103C5
:101E900004C02196C930D10549F68091C1039091C3
:101EA000C20301969093C2038093C1038091C10342
:101EB0009091C20309970CF4AECF02C00E94470A6A
:101EC0008091F6009091F700FC0153E0EE0FFF1FA8
:101ED0005A95E1F7880F991FE80FF91F8091F800D4
:101EE0009091F900E80FF91FEE0FFF1FED53FC4F23
:101EF00080819181892B11F78FEF9FEF20E931E0ED
:101F0000F9013197F1F70197D9F780E00E94290193
:101F10001092C2031092C1030EC0E85EFE4F808192
:101F20000E948A008091C1039091C2030196909310
:101F3000C2038093C103E091C103F091C203E03179
:101F4000F1055CF328E1E22E21E0F22EACE4B1E0F1
:101F5000F70120E030E004C081918D932F5F3F4F67
:101F600029313105CCF340E050E020E030E00BC0F7
:101F7000419351934F5F5F4F019688309105C1F7B0
:101F80002F5F3F4FA901283031055CF4F90194E03F
:101F9000EE0FFF1F9A95E1F7EC58FF4F80E090E0BD
:101FA000E7CF61ED74E021E030E040E050E016C0A2
:101FB000888199818436910519F08D919C911197B2
:101FC00091838083289632961296C617D70781F799
:101FD0002F5F3F4F605C7F4F4F5F5F4F2930310570
:101FE00004F5EA0186E0CC0FDD1F8A95E1F7CF56B4
:101FF000DB4FF901EE0FFF1FC901A3E0880F991F06
:10200000AA95E1F7E80FF91FEE0FFF1FEB53FC4F06
:10201000DA0184E0AA0FBB1F8A95E1F7AC58BF4FE5
:10202000C7CF83E090E09093F5008093F40088E0C0
:1020300090E09093F7008093F60086E090E0909314
:10204000F9008093F80081E090E047C0809113018F
:102050009091140101969093140180931301C1E0B3
:10206000D0E0809113019091140101969093140196
:10207000809313018091C1039091C203BE010E941D
:102080006B098093AC069093AD069C01E091C1036F
:10209000F091C2033197219753E0EE0FFF1F5A953D
:1020A000E1F7EC0FFD1F2196EE0FFF1FEC58FF4FDD
:1020B000808191812817390739F03183208310926C
:1020C000C2031092C10304C02196C930D10549F65C
:1020D0008091C1039091C20301969093C2038093B3
:1020E000C1038091C1039091C20309970CF4AECF54
:1020F00010920E0110920D0102C00E94470A8091B9
:10210000F6009091F700FC0133E0EE0FFF1F3A95C7
:10211000E1F7880F991FE80FF91F8091F80090915F
:10212000F900E80FF91FEE0FFF1FED53FC4F808100
:102130009181892B11F78FEF9FEF20E931E0F901B1
:102140003197F1F70197D9F780E00E9429011092A9
:10215000C2031092C1030EC0E85EFE4F80810E9450
:102160008A008091C1039091C20301969093C203AB
:102170008093C103E091C103F091C203E031F10506
:102180005CF3A1E9B6E0E8E1F1E020E030E004C072
:1021900081918D932F5F3F4F29313105CCF340E082
:1021A00050E020E030E00DC0518340834F5F5F4F2F
:1021B000019732976FEF8F3F9607B1F72F5F3F4F31
:1021C000A901283031055CF4F90184E0EE0FFF1F0E
:1021D0008A95E1F7EE57FF4F87E090E0E5CF83E087
:1021E00090E09093F5008093F40088E090E0909365
:1021F000F7008093F60086E090E09093F9008093DA
:10220000F80021E030E040E050E016C0888199817C
:102210008436910519F08D919C911197918380835B
:10222000289632961296C017D10781F72F5F3F4F3D
:10223000005C1F4F4F5F5F4F2930310504F5EA0105
:10224000B6E0CC0FDD1FBA95E1F7CF56DB4FF901B1
:10225000EE0FFF1FC90173E0880F991F7A95E1F710
:10226000E80FF91FEE0FFF1FEB53FC4FDA0194E06C
:10227000AA0FBB1F9A95E1F7AC58BF4FC7CF81E0BB
:1022800090E047C0809113019091140101969093C2
:10229000140180931301C1E0D0E08091130190916B
:1022A0001401019690931401809313018091C1034E
:1022B0009091C203BE010E946B098093AC0690937B
:1022C000AD069C01E091C103F091C20331972197C3
:1022D00083E0EE0FFF1F8A95E1F7EC0FFD1F2196BB
:1022E000EE0FFF1FEC58FF4F8081918128173907AF
:1022F00039F0318320831092C2031092C10304C0CD
:102300002196C930D10549F68091C1039091C2034D
:1023100001969093C2038093C1038091C103909171
:10232000C20309970CF4AECF10920E0110920D016A
:1023300002C00E94470A8091F6009091F700FC01CC
:1023400013E0EE0FFF1F1A95E1F7880F991FE80FB2
:10235000F91F8091F8009091F900E80FF91FEE0F36
:10236000FF1FED53FC4F80819181892B11F78FEF77
:102370009FEF20E931E0F9013197F1F70197D9F7A3
:1023800080E00E9429011092C2031092C1030EC086
:10239000E85EFE4F80810E948A008091C103909187
:1023A000C20301969093C2038093C103E091C103DD
:1023B000F091C203E031F1055CF3E1E3F1E020E0EC
:1023C00030E006C0D7018D917D0181932F5F3F4F93
:1023D00029313105BCF33093C2032093C103DF914F
:1023E000CF911F910F91FF90EF9008950F931F933E
:1023F000CF93DF93C0E0D0E001E010E00E943D13F6
:102400008091030190910401892B29F42196109366
:10241000040100930301C230D10581F70E94E50851
:1024200082E50E94DF070E94F7080E94F7088EE409
:102430000E94DF07DF91CF911F910F9108950E94B5
:10244000F611CE9B0CC0CF9B0AC081E08093150192
:1024500081E090E090931701809316010BC0CE9914
:1024600002C0CF9904C0CE9BECCFCF99EACF82E0D7
:10247000809315010E94E50820E030E048EC50E030
:10248000C09AC198CA010197F1F7C09AC19ACA01CE
:102490000197F1F72F5F3F4FAB9A8FE0203A380753
:1024A00079F7AB98CE9B0CC0CF9B0AC081E080939C
:1024B000150181E090E0909317018093160103C00D
:1024C00082E0809315010E94E5088091150190E05B
:1024D0000E943C1485E50E94DF070E94F7080E94D5
:1024E000F7080E94F7088EE40E94DF07CE9B0CC01D
:1024F000CF9B0AC08091160190911701892B11F48E
:1025000081E00BC083E009C0CE9902C0CF9904C01E
:10251000CE9BECCFCF99EACF82E0809315010E9449
:10252000E50820E030E048EC50E0C09AC198CA01CC
:102530000197F1F7C09AC19ACA010197F1F72F5F8D
:102540003F4FAB9A8FE0203A380779F7AB98CE9B94
:1025500012C0CF9B10C08091160190911701019776
:1025600011F483E009C081E090E09093170180931B
:10257000160181E001C082E0809315018EE40E9483
:10258000DF070E943D138EE40E94DF070E94E508EA
:102590008091150190E00E943C1485E50E94DF07C0
:1025A0000E94F7080E94F7080E94F7088EE40E9434
:1025B000DF07CE9B0CC0CF9B0AC080911601909183
:1025C0001701892B11F481E00BC083E009C0CE997B
:1025D00002C0CF9904C0CE9BECCFCF99EACF82E066
:1025E000809315010E94E50820E030E048EC50E0BF
:1025F000C09AC198CA010197F1F7C09AC19ACA015D
:102600000197F1F72F5F3F4FAB9A8FE0203A3807E1
:1026100079F7AB98CE9B12C0CF9B10C0809116016A
:1026200090911701019711F483E009C081E090E0D7
:10263000909317018093160181E001C082E080939E
:1026400015018EE40E94DF070E943D138EE40E9474
:10265000DF070E94E5088091150190E00E943C147C
:1026600085E50E94DF070E94F7080E94F7080E9494
:10267000F7088EE40E94DF070895EF92FF920F9310
:102680001F93CF93DF932AE1E22E0CE711E090E550
:10269000F92EC4E5D1E0B59909C08EE40E94DF07A8
:1026A000B599FECFB59BFECF0E941F12C99914C0E9
:1026B000CA9912C0CB9B10C0CC990EC0CD990CC04A
:1026C000959A979A8E2D8A95F1F7949A9598969A5D
:1026D0009798C8010197F1F7CA9B10C0CB9B0EC019
:1026E000CC9B0CC0959A979A8E2D8A95F1F7949A67
:1026F0009598969A9798C8010197F1F7CA9B0FC0D1
:10270000CB9B0DC0CC990BC0969A9798949A959AAA
:102710008F2D8A95F1F79598CE010197F1F7CA9917
:102720000FC0CB9B0DC0CC9B0BC0949A9598969AEA
:10273000979A8F2D8A95F1F79798CE010197F1F727
:10274000CA9908C0CB9906C0CC9B04C0949A9598AE
:10275000969A979ACA9B08C0CB9906C0CC9904C098
:10276000969A9798949A959AC99B0CC0CA990AC050
:10277000CB9908C0CC9906C0CD9904C0969A979879
:102780009498959AC9990CC0CA990AC0CB9908C067
:10279000CC9906C0CD9B04C0949A95989698979A28
:1027A000C99B02C0CD9904C010920401109203018C
:1027B000C99B08C0CA9B06C0CB9B04C0CC9B02C06F
:1027C000CD9953C0C99B08C0CA9906C0CB9904C013
:1027D000CC9902C0CD9932C0C99B08C0CA9B06C023
:1027E000CB9B04C0CC9902C0CD9928C0C99B08C01E
:1027F000CA9906C0CB9B04C0CC9B02C0CD991EC019
:10280000C99B08C0CA9B06C0CB9904C0CC9902C022
:10281000CD9914C0C99B08C0CA9906C0CB9904C001
:10282000CC9B02C0CD990AC0C99B0FC0CA9B0DC0EA
:10283000CB990BC0CC9B09C0CD9B07C081E090E039
:1028400090930A018093090110C0CB9B04C01092A1
:102850000A0110920901C9991ECFCA991CCFCB99C0
:102860001ACFCC9918CF89B316CFDF91CF911F9192
:102870000F91FF90EF9008950F931F93CF93DF93E5
:102880008230910509F065C0C0E0D0E002E0FE01B1
:10289000E45BFE4F10810E94E508812F0E94DF0754
:1028A0001E3449F00E943D1382B3802782BB2196DB
:1028B000C931D10561F7ECE4F1E02CE492E58081C7
:1028C0008C3411F4908303C0823509F4208331964F
:1028D00081E0E536F80799F78EE40E94DF070E9451
:1028E000E5082091C1033091C20344E551E060E561
:1028F0000DC0C098C19ACA010197F1F7C09AC19A58
:10290000862F8A95F1F7AB9A2F5F3F4F8FE0203AE1
:1029100038077CF33093C2032093C103AB980E9425
:10292000F70885E50E94DF07C55BDE4F02E00CC0BB
:102930000E943D1318810E94E508812F0E94DF0745
:1029400082B3802782BB219781E0CB34D80781F7FF
:10295000D0C08330910509F065C0C0E0D0E002E04E
:10296000FE01EF5CFE4F10810E94E508812F0E945E
:10297000DF071E3449F00E943D1382B3802782BBDB
:102980002196C931D10561F7E1E3F1E02CE492E54C
:1029900080818C3411F4908303C0823509F4208344
:1029A000319681E0EA34F80799F78EE40E94DF0758
:1029B0000E94E5082091C1033091C20344E551E033
:1029C00060E50DC0C098C19ACA010197F1F7C09A9D
:1029D000C19A862F8A95F1F7AB9A2F5F3F4F8FE010
:1029E000203A38077CF33093C2032093C103AB989D
:1029F0000E94F70885E50E94DF07C05DDE4F02E018
:102A00000CC00E943D1318810E94E508812F0E948E
:102A1000DF0782B3802782BB219781E0C033D807CC
:102A200081F767C0019709F067C0C0E0D0E002E01D
:102A3000FE01EF56F94F10810E94E508812F0E9498
:102A4000DF071E3449F00E943D1382B3802782BB0A
:102A50002196C931D10561F7E1E9F6E02CE492E570
:102A600080818C3411F4908303C0823509F4208373
:102A7000319686E0EA3AF80799F78EE40E94DF077C
:102A80000E94E5082091C1033091C20344E551E062
:102A900060E50DC0C098C19ACA010197F1F7C09ACC
:102AA000C19A862F8A95F1F7AB9A2F5F3F4F8FE03F
:102AB000203A38077CF33093C2032093C103AB98CC
:102AC0000E94F70885E50E94DF07C057D94F02E052
:102AD0000CC00E943D1318810E94E508812F0E94BE
:102AE000DF0782B3802782BB219786E0C039D807F1
:102AF00081F78EE40E94DF07DF91CF911F910F9144
:102B000008951F931ABA8FEF8BBB81B3806381BB8B
:102B100081B3806C81BB949A9598969A979887B365
:102B2000836087BBA39AC59A0E943F01A99A80E35C
:102B30000E9429010E9460010E9488020E943D13A8
:102B400080E00E942D0180E690E00E949D0080912F
:102B50000B010E94FB0083E690E00E949D008091A3
:102B600011010E94FB0086E690E00E949D0080918A
:102B700003010E94FB00AB980E9425020E9467029D
:102B8000182F0E94940280E00E94290189E690E0BB
:102B90000E949D008091FD000E94FB008CE690E069
:102BA0000E949D008091FF000E94FB008FE690E054
:102BB0000E949D00E091FD00F091FE0043E0EE0FC9
:102BC000FF1F4A95E1F78091FF0090910001E80F07
:102BD000F91F33E0EE0FFF1F3A95E1F7EF56FB4F79
:102BE00080810E94C7000E94E508812F0E94DF07B4
:102BF0001E3409F0A1CF81E00E9471000E94AF0E47
:102C00008FEF9FEF20E931E0F9013197F1F701975C
:102C1000D9F7CE9B02C0CF9908C0CE9902C0CF99F8
:102C200004C0CE9BF6CFCF99F4CF0E941F12FDCFE8
:102C30001F920F920FB60F9211248F939F93809142
:102C40000F019091100101969093100180930F0154
:102C50009F918F910F900FBE0F901F901895991B09
:102C600079E004C0991F961708F0961B881F7A9583
:102C7000C9F78095089597FB092E07260AD077FD9E
:102C800004D00CD006D000201AF4709561957F4FC7
:102C90000895F6F7909581959F4F0895AA1BBB1B49
:102CA00051E107C0AA1FBB1FA617B70710F0A61B4C
:102CB000B70B881F991F5A95A9F780959095BC016D
:082CC000CD010895F894FFCF47
:102CC800423A00543A00663A00783A00793A006E7F
:102CD8003A00010006000500040003000300040098
:102CE80005000600050004000300020002000300BE
:102CF80004000500040003000200010001000200B6
:102D080003000400030002000100000000000100AD
:102D1800020003000300020001000000000001009F
:102D28000200030004000300020001000100020089
:102D38000300040005000400030002000200030071
:102D48000400050006000500040003000300040059
:0A2D58000500060003000800060055
:00000001FF
